{"abi":[{"type":"constructor","inputs":[{"name":"_vault","type":"address","internalType":"address"},{"name":"_owner","type":"address","internalType":"address"}],"stateMutability":"nonpayable"},{"type":"function","name":"addSupportedCurrency","inputs":[{"name":"currency","type":"bytes32","internalType":"bytes32"},{"name":"oracle","type":"address","internalType":"address"},{"name":"collateralizationRatio","type":"uint256","internalType":"uint256"},{"name":"liquidationThreshold","type":"uint256","internalType":"uint256"},{"name":"baseRate","type":"uint256","internalType":"uint256"},{"name":"minRate","type":"uint256","internalType":"uint256"},{"name":"maxRate","type":"uint256","internalType":"uint256"},{"name":"sensitivity","type":"uint256","internalType":"uint256"}],"outputs":[],"stateMutability":"nonpayable"},{"type":"function","name":"borrow","inputs":[{"name":"collateralToken","type":"address","internalType":"address"},{"name":"borrowAmount","type":"uint256","internalType":"uint256"},{"name":"fiatCurrency","type":"bytes32","internalType":"bytes32"}],"outputs":[],"stateMutability":"nonpayable"},{"type":"function","name":"borrows","inputs":[{"name":"","type":"address","internalType":"address"},{"name":"","type":"bytes32","internalType":"bytes32"}],"outputs":[{"name":"owner","type":"address","internalType":"address"},{"name":"borrowedAmount","type":"uint256","internalType":"uint256"},{"name":"collateralToken","type":"address","internalType":"address"},{"name":"fiatCurrency","type":"bytes32","internalType":"bytes32"},{"name":"totalRepaid","type":"uint256","internalType":"uint256"},{"name":"status","type":"uint8","internalType":"enum Torito.BorrowStatus"}],"stateMutability":"view"},{"type":"function","name":"cancelBorrow","inputs":[{"name":"user","type":"address","internalType":"address"},{"name":"currency","type":"bytes32","internalType":"bytes32"}],"outputs":[],"stateMutability":"nonpayable"},{"type":"function","name":"convertCurrencyToUSD","inputs":[{"name":"currency","type":"bytes32","internalType":"bytes32"},{"name":"amount","type":"uint256","internalType":"uint256"}],"outputs":[{"name":"","type":"uint256","internalType":"uint256"}],"stateMutability":"view"},{"type":"function","name":"convertUSDToCurrency","inputs":[{"name":"currency","type":"bytes32","internalType":"bytes32"},{"name":"usdAmount","type":"uint256","internalType":"uint256"}],"outputs":[{"name":"","type":"uint256","internalType":"uint256"}],"stateMutability":"view"},{"type":"function","name":"getBorrow","inputs":[{"name":"user","type":"address","internalType":"address"},{"name":"currency","type":"bytes32","internalType":"bytes32"}],"outputs":[{"name":"","type":"tuple","internalType":"struct Torito.Borrow","components":[{"name":"owner","type":"address","internalType":"address"},{"name":"borrowedAmount","type":"uint256","internalType":"uint256"},{"name":"collateralToken","type":"address","internalType":"address"},{"name":"fiatCurrency","type":"bytes32","internalType":"bytes32"},{"name":"totalRepaid","type":"uint256","internalType":"uint256"},{"name":"status","type":"uint8","internalType":"enum Torito.BorrowStatus"}]}],"stateMutability":"view"},{"type":"function","name":"getDynamicBorrowRate","inputs":[{"name":"currency","type":"bytes32","internalType":"bytes32"}],"outputs":[{"name":"","type":"uint256","internalType":"uint256"}],"stateMutability":"view"},{"type":"function","name":"liquidate","inputs":[{"name":"user","type":"address","internalType":"address"},{"name":"currency","type":"bytes32","internalType":"bytes32"}],"outputs":[],"stateMutability":"nonpayable"},{"type":"function","name":"owner","inputs":[],"outputs":[{"name":"","type":"address","internalType":"address"}],"stateMutability":"view"},{"type":"function","name":"processBorrow","inputs":[{"name":"user","type":"address","internalType":"address"},{"name":"currency","type":"bytes32","internalType":"bytes32"}],"outputs":[],"stateMutability":"nonpayable"},{"type":"function","name":"renounceOwnership","inputs":[],"outputs":[],"stateMutability":"nonpayable"},{"type":"function","name":"repayLoan","inputs":[{"name":"currency","type":"bytes32","internalType":"bytes32"},{"name":"repaymentAmount","type":"uint256","internalType":"uint256"}],"outputs":[],"stateMutability":"nonpayable"},{"type":"function","name":"setSupportedToken","inputs":[{"name":"token","type":"address","internalType":"address"},{"name":"supported","type":"bool","internalType":"bool"}],"outputs":[],"stateMutability":"nonpayable"},{"type":"function","name":"supplies","inputs":[{"name":"","type":"address","internalType":"address"},{"name":"","type":"address","internalType":"address"}],"outputs":[{"name":"owner","type":"address","internalType":"address"},{"name":"shares","type":"uint256","internalType":"uint256"},{"name":"token","type":"address","internalType":"address"},{"name":"borrowFiatCurrency","type":"bytes32","internalType":"bytes32"},{"name":"status","type":"uint8","internalType":"enum Torito.SupplyStatus"}],"stateMutability":"view"},{"type":"function","name":"supply","inputs":[{"name":"token","type":"address","internalType":"address"},{"name":"amount","type":"uint256","internalType":"uint256"}],"outputs":[],"stateMutability":"nonpayable"},{"type":"function","name":"supportedCurrencies","inputs":[{"name":"","type":"bytes32","internalType":"bytes32"}],"outputs":[{"name":"currency","type":"bytes32","internalType":"bytes32"},{"name":"collateralizationRatio","type":"uint256","internalType":"uint256"},{"name":"liquidationThreshold","type":"uint256","internalType":"uint256"},{"name":"oracle","type":"address","internalType":"address"},{"name":"baseRate","type":"uint256","internalType":"uint256"},{"name":"minRate","type":"uint256","internalType":"uint256"},{"name":"maxRate","type":"uint256","internalType":"uint256"},{"name":"sensitivity","type":"uint256","internalType":"uint256"},{"name":"borrowIndex","type":"uint256","internalType":"uint256"},{"name":"lastUpdateBorrowIndex","type":"uint256","internalType":"uint256"}],"stateMutability":"view"},{"type":"function","name":"supportedTokens","inputs":[{"name":"","type":"address","internalType":"address"}],"outputs":[{"name":"","type":"bool","internalType":"bool"}],"stateMutability":"view"},{"type":"function","name":"transferOwnership","inputs":[{"name":"newOwner","type":"address","internalType":"address"}],"outputs":[],"stateMutability":"nonpayable"},{"type":"function","name":"updateBorrowIndex","inputs":[{"name":"currency","type":"bytes32","internalType":"bytes32"}],"outputs":[],"stateMutability":"nonpayable"},{"type":"function","name":"updateCurrencyOracle","inputs":[{"name":"currency","type":"bytes32","internalType":"bytes32"},{"name":"oracle","type":"address","internalType":"address"}],"outputs":[],"stateMutability":"nonpayable"},{"type":"function","name":"vault","inputs":[],"outputs":[{"name":"","type":"address","internalType":"contract IMetaMorpho"}],"stateMutability":"view"},{"type":"function","name":"withdrawSupply","inputs":[{"name":"token","type":"address","internalType":"address"},{"name":"assetsToWithdraw","type":"uint256","internalType":"uint256"}],"outputs":[],"stateMutability":"nonpayable"},{"type":"event","name":"BorrowCanceled","inputs":[{"name":"user","type":"address","indexed":true,"internalType":"address"},{"name":"currency","type":"bytes32","indexed":false,"internalType":"bytes32"}],"anonymous":false},{"type":"event","name":"BorrowProcessed","inputs":[{"name":"user","type":"address","indexed":true,"internalType":"address"},{"name":"currency","type":"bytes32","indexed":false,"internalType":"bytes32"}],"anonymous":false},{"type":"event","name":"BorrowUpdated","inputs":[{"name":"user","type":"address","indexed":true,"internalType":"address"},{"name":"currency","type":"bytes32","indexed":false,"internalType":"bytes32"},{"name":"amount","type":"uint256","indexed":false,"internalType":"uint256"},{"name":"totalAmount","type":"uint256","indexed":false,"internalType":"uint256"}],"anonymous":false},{"type":"event","name":"CollateralLiquidated","inputs":[{"name":"user","type":"address","indexed":true,"internalType":"address"},{"name":"collateralAmount","type":"uint256","indexed":false,"internalType":"uint256"}],"anonymous":false},{"type":"event","name":"LoanRepaid","inputs":[{"name":"user","type":"address","indexed":true,"internalType":"address"},{"name":"currency","type":"bytes32","indexed":false,"internalType":"bytes32"},{"name":"amount","type":"uint256","indexed":false,"internalType":"uint256"},{"name":"remainingAmount","type":"uint256","indexed":false,"internalType":"uint256"}],"anonymous":false},{"type":"event","name":"OwnershipTransferred","inputs":[{"name":"previousOwner","type":"address","indexed":true,"internalType":"address"},{"name":"newOwner","type":"address","indexed":true,"internalType":"address"}],"anonymous":false},{"type":"event","name":"SupplyUpdated","inputs":[{"name":"user","type":"address","indexed":true,"internalType":"address"},{"name":"token","type":"address","indexed":false,"internalType":"address"},{"name":"amount","type":"uint256","indexed":false,"internalType":"uint256"},{"name":"totalAmount","type":"uint256","indexed":false,"internalType":"uint256"}],"anonymous":false},{"type":"error","name":"OwnableInvalidOwner","inputs":[{"name":"owner","type":"address","internalType":"address"}]},{"type":"error","name":"OwnableUnauthorizedAccount","inputs":[{"name":"account","type":"address","internalType":"address"}]}],"bytecode":{"object":"0x608060405234801561000f575f5ffd5b5060405161420038038061420083398181016040528101906100319190610218565b805f73ffffffffffffffffffffffffffffffffffffffff168173ffffffffffffffffffffffffffffffffffffffff16036100a2575f6040517f1e4fbdf70000000000000000000000000000000000000000000000000000000081526004016100999190610265565b60405180910390fd5b6100b1816100f960201b60201c565b508160055f6101000a81548173ffffffffffffffffffffffffffffffffffffffff021916908373ffffffffffffffffffffffffffffffffffffffff160217905550505061027e565b5f5f5f9054906101000a900473ffffffffffffffffffffffffffffffffffffffff169050815f5f6101000a81548173ffffffffffffffffffffffffffffffffffffffff021916908373ffffffffffffffffffffffffffffffffffffffff1602179055508173ffffffffffffffffffffffffffffffffffffffff168173ffffffffffffffffffffffffffffffffffffffff167f8be0079c531659141344cd1fd0a4f28419497f9722a3daafe3b4186f6b6457e060405160405180910390a35050565b5f5ffd5b5f73ffffffffffffffffffffffffffffffffffffffff82169050919050565b5f6101e7826101be565b9050919050565b6101f7816101dd565b8114610201575f5ffd5b50565b5f81519050610212816101ee565b92915050565b5f5f6040838503121561022e5761022d6101ba565b5b5f61023b85828601610204565b925050602061024c85828601610204565b9150509250929050565b61025f816101dd565b82525050565b5f6020820190506102785f830184610256565b92915050565b613f758061028b5f395ff3fe608060405234801561000f575f5ffd5b506004361061014b575f3560e01c806384e4da35116100c1578063e72b60261161007a578063e72b6026146103b4578063e7986466146103d0578063f2b9fdb8146103ec578063f2fde38b14610408578063f59d405914610424578063fbfa77cf146104595761014b565b806384e4da35146102ca5780638da5cb5b146102fa5780639fe9f4a014610318578063aee582f914610348578063c24f853014610364578063e399d95a146103985761014b565b80633af8c7a6116101135780633af8c7a6146101db5780633db1763f146101f7578063510f065b1461023057806368c4ac2614610260578063697f6c0814610290578063715018a6146102c05761014b565b8063027315dd1461014f578063050bdf061461016b57806307ea32eb146101875780631b70ab95146101a357806327c2f17c146101bf575b5f5ffd5b61016960048036038101906101649190612df3565b610477565b005b61018560048036038101906101809190612e78565b610528565b005b6101a1600480360381019061019c9190612ee9565b6105f8565b005b6101bd60048036038101906101b89190612f9a565b6107ff565b005b6101d960048036038101906101d49190612fd8565b61085d565b005b6101f560048036038101906101f09190612e78565b610c1a565b005b610211600480360381019061020c9190612df3565b611011565b6040516102279a99989796959493929190613043565b60405180910390f35b61024a60048036038101906102459190612fd8565b611080565b60405161025791906130dd565b60405180910390f35b61027a600480360381019061027591906130f6565b611152565b604051610287919061313b565b60405180910390f35b6102aa60048036038101906102a59190612e78565b61116f565b6040516102b7919061326d565b60405180910390f35b6102c86112d7565b005b6102e460048036038101906102df9190612df3565b6112ea565b6040516102f191906130dd565b60405180910390f35b61030261140f565b60405161030f9190613286565b60405180910390f35b610332600480360381019061032d9190612fd8565b611436565b60405161033f91906130dd565b60405180910390f35b610362600480360381019061035d919061329f565b61151d565b005b61037e600480360381019061037991906132ef565b611b24565b60405161038f959493929190613373565b60405180910390f35b6103b260048036038101906103ad9190612e78565b611bab565b005b6103ce60048036038101906103c991906133c4565b611c7c565b005b6103ea60048036038101906103e5919061342c565b612306565b005b610406600480360381019061040191906133c4565b612423565b005b610422600480360381019061041d91906130f6565b6129df565b005b61043e60048036038101906104399190612e78565b612a63565b60405161045096959493929190613479565b60405180910390f35b610461612af0565b60405161046e9190613533565b60405180910390f35b5f60045f8381526020019081526020015f2090505f81600901544261049c9190613579565b90505f81036104ac575050610525565b5f6104b6846112ea565b90506b033b2e3c9fd0803ce80000006301e1338083836104d691906135ac565b6104e0919061361a565b6b033b2e3c9fd0803ce80000006104f7919061364a565b846008015461050691906135ac565b610510919061361a565b83600801819055504283600901819055505050505b50565b610530612b15565b6002805f8473ffffffffffffffffffffffffffffffffffffffff1673ffffffffffffffffffffffffffffffffffffffff1681526020019081526020015f205f8381526020019081526020015f206005015f6101000a81548160ff021916908360048111156105a1576105a0613181565b5b02179055508173ffffffffffffffffffffffffffffffffffffffff167fb591be7bbddb77873e000591178280a6a82cdb3d52013684a48e1c0044e537ae826040516105ec919061367d565b60405180910390a25050565b610600612b15565b670de0b6b3a764000086101561064b576040517f08c379a0000000000000000000000000000000000000000000000000000000008152600401610642906136f0565b60405180910390fd5b670de0b6b3a7640000851015610696576040517f08c379a000000000000000000000000000000000000000000000000000000000815260040161068d90613758565b60405180910390fd5b858511156106d9576040517f08c379a00000000000000000000000000000000000000000000000000000000081526004016106d0906137c0565b60405180910390fd5b6040518061014001604052808981526020018781526020018681526020018873ffffffffffffffffffffffffffffffffffffffff1681526020018581526020018481526020018381526020018281526020016b033b2e3c9fd0803ce800000081526020014281525060045f8a81526020019081526020015f205f820151815f015560208201518160010155604082015181600201556060820151816003015f6101000a81548173ffffffffffffffffffffffffffffffffffffffff021916908373ffffffffffffffffffffffffffffffffffffffff1602179055506080820151816004015560a0820151816005015560c0820151816006015560e08201518160070155610100820151816008015561012082015181600901559050505050505050505050565b610807612b15565b8060045f8481526020019081526020015f206003015f6101000a81548173ffffffffffffffffffffffffffffffffffffffff021916908373ffffffffffffffffffffffffffffffffffffffff1602179055505050565b33825f73ffffffffffffffffffffffffffffffffffffffff1660025f8473ffffffffffffffffffffffffffffffffffffffff1673ffffffffffffffffffffffffffffffffffffffff1681526020019081526020015f205f8381526020019081526020015f205f015f9054906101000a900473ffffffffffffffffffffffffffffffffffffffff1673ffffffffffffffffffffffffffffffffffffffff160361093a576040517f08c379a000000000000000000000000000000000000000000000000000000000815260040161093190613828565b60405180910390fd5b61094384610477565b5f60025f3373ffffffffffffffffffffffffffffffffffffffff1673ffffffffffffffffffffffffffffffffffffffff1681526020019081526020015f205f8681526020019081526020015f209050600160048111156109a6576109a5613181565b5b816005015f9054906101000a900460ff1660048111156109c9576109c8613181565b5b14610a09576040517f08c379a0000000000000000000000000000000000000000000000000000000008152600401610a0090613890565b60405180910390fd5b5f81600401546b033b2e3c9fd0803ce800000060045f8981526020019081526020015f20600801548460010154610a4091906135ac565b610a4a919061361a565b610a549190613579565b905080851115610a99576040517f08c379a0000000000000000000000000000000000000000000000000000000008152600401610a90906138f8565b60405180910390fd5b84826004015f828254610aac919061364a565b9250508190555080826004015410610bb0576003826005015f6101000a81548160ff02191690836004811115610ae557610ae4613181565b5b02179055505f60015f3373ffffffffffffffffffffffffffffffffffffffff1673ffffffffffffffffffffffffffffffffffffffff1681526020019081526020015f205f846002015f9054906101000a900473ffffffffffffffffffffffffffffffffffffffff1673ffffffffffffffffffffffffffffffffffffffff1673ffffffffffffffffffffffffffffffffffffffff1681526020019081526020015f206004015f6101000a81548160ff02191690836002811115610baa57610ba9613181565b5b02179055505b5f8582610bbd9190613579565b90503373ffffffffffffffffffffffffffffffffffffffff167fc31e126641b4d5ee4a0af4185c9714b801b757a5302c2f621867b240341531ac888884604051610c0993929190613916565b60405180910390a250505050505050565b5f60025f8473ffffffffffffffffffffffffffffffffffffffff1673ffffffffffffffffffffffffffffffffffffffff1681526020019081526020015f205f8381526020019081526020015f2090505f73ffffffffffffffffffffffffffffffffffffffff16815f015f9054906101000a900473ffffffffffffffffffffffffffffffffffffffff1673ffffffffffffffffffffffffffffffffffffffff1603610cf9576040517f08c379a0000000000000000000000000000000000000000000000000000000008152600401610cf090613828565b60405180910390fd5b60016004811115610d0d57610d0c613181565b5b816005015f9054906101000a900460ff166004811115610d3057610d2f613181565b5b14610d70576040517f08c379a0000000000000000000000000000000000000000000000000000000008152600401610d6790613890565b60405180910390fd5b5f60015f8573ffffffffffffffffffffffffffffffffffffffff1673ffffffffffffffffffffffffffffffffffffffff1681526020019081526020015f205f836002015f9054906101000a900473ffffffffffffffffffffffffffffffffffffffff1673ffffffffffffffffffffffffffffffffffffffff1673ffffffffffffffffffffffffffffffffffffffff1681526020019081526020015f2090505f60055f9054906101000a900473ffffffffffffffffffffffffffffffffffffffff1673ffffffffffffffffffffffffffffffffffffffff16634cdad50683600101546040518263ffffffff1660e01b8152600401610e6d91906130dd565b602060405180830381865afa158015610e88573d5f5f3e3d5ffd5b505050506040513d601f19601f82011682018060405250810190610eac919061395f565b90505f60045f856003015481526020019081526020015f206002015490505f84600401546b033b2e3c9fd0803ce800000060045f8981526020019081526020015f20600801548760010154610f0191906135ac565b610f0b919061361a565b610f159190613579565b90505f610f228783611436565b90505f81670de0b6b3a764000086610f3a91906135ac565b610f44919061361a565b9050838110610f88576040517f08c379a0000000000000000000000000000000000000000000000000000000008152600401610f7f906139d4565b60405180910390fd5b6004876005015f6101000a81548160ff02191690836004811115610faf57610fae613181565b5b02179055508873ffffffffffffffffffffffffffffffffffffffff167ffa149b6f966139cc74dfaf2610f7b54d8823dbeed646b7da48d8144f510c3f218760010154604051610ffe91906130dd565b60405180910390a2505050505050505050565b6004602052805f5260405f205f91509050805f015490806001015490806002015490806003015f9054906101000a900473ffffffffffffffffffffffffffffffffffffffff1690806004015490806005015490806006015490806007015490806008015490806009015490508a565b5f5f60045f8581526020019081526020015f206003015f9054906101000a900473ffffffffffffffffffffffffffffffffffffffff1673ffffffffffffffffffffffffffffffffffffffff166331d98b3f856040518263ffffffff1660e01b81526004016110ee919061367d565b602060405180830381865afa158015611109573d5f5f3e3d5ffd5b505050506040513d601f19601f8201168201806040525081019061112d919061395f565b9050620f4240818461113f91906135ac565b611149919061361a565b91505092915050565b6003602052805f5260405f205f915054906101000a900460ff1681565b611177612d44565b60025f8473ffffffffffffffffffffffffffffffffffffffff1673ffffffffffffffffffffffffffffffffffffffff1681526020019081526020015f205f8381526020019081526020015f206040518060c00160405290815f82015f9054906101000a900473ffffffffffffffffffffffffffffffffffffffff1673ffffffffffffffffffffffffffffffffffffffff1673ffffffffffffffffffffffffffffffffffffffff16815260200160018201548152602001600282015f9054906101000a900473ffffffffffffffffffffffffffffffffffffffff1673ffffffffffffffffffffffffffffffffffffffff1673ffffffffffffffffffffffffffffffffffffffff1681526020016003820154815260200160048201548152602001600582015f9054906101000a900460ff1660048111156112b9576112b8613181565b5b60048111156112cb576112ca613181565b5b81525050905092915050565b6112df612b15565b6112e85f612b9c565b565b5f5f60045f8481526020019081526020015f2090505f73ffffffffffffffffffffffffffffffffffffffff16816003015f9054906101000a900473ffffffffffffffffffffffffffffffffffffffff1673ffffffffffffffffffffffffffffffffffffffff160361136257806004015491505061140a565b5f611378825f0154670de0b6b3a7640000611436565b90505f810361138f5781600401549250505061140a565b5f670de0b6b3a76400008360070154670de0b6b3a7640000846113b29190613579565b6113bc91906135ac565b6113c6919061361a565b83600401546113d5919061364a565b9050826006015481116113fe57826005015481106113f357806113f9565b82600501545b611404565b82600601545b93505050505b919050565b5f5f5f9054906101000a900473ffffffffffffffffffffffffffffffffffffffff16905090565b5f5f60045f8581526020019081526020015f206003015f9054906101000a900473ffffffffffffffffffffffffffffffffffffffff1673ffffffffffffffffffffffffffffffffffffffff166331d98b3f856040518263ffffffff1660e01b81526004016114a4919061367d565b602060405180830381865afa1580156114bf573d5f5f3e3d5ffd5b505050506040513d601f19601f820116820180604052508101906114e3919061395f565b905064e8d4a5100081670de0b6b3a76400008561150091906135ac565b61150a919061361a565b611514919061361a565b91505092915050565b33835f73ffffffffffffffffffffffffffffffffffffffff1660015f8473ffffffffffffffffffffffffffffffffffffffff1673ffffffffffffffffffffffffffffffffffffffff1681526020019081526020015f205f8373ffffffffffffffffffffffffffffffffffffffff1673ffffffffffffffffffffffffffffffffffffffff1681526020019081526020015f205f015f9054906101000a900473ffffffffffffffffffffffffffffffffffffffff1673ffffffffffffffffffffffffffffffffffffffff1603611626576040517f08c379a000000000000000000000000000000000000000000000000000000000815260040161161d90613a3c565b60405180910390fd5b5f5f1b60045f8581526020019081526020015f205f01540361167d576040517f08c379a000000000000000000000000000000000000000000000000000000000815260040161167490613aa4565b60405180910390fd5b61168683610477565b5f60015f3373ffffffffffffffffffffffffffffffffffffffff1673ffffffffffffffffffffffffffffffffffffffff1681526020019081526020015f205f8773ffffffffffffffffffffffffffffffffffffffff1673ffffffffffffffffffffffffffffffffffffffff1681526020019081526020015f2090505f600281111561171457611713613181565b5b816004015f9054906101000a900460ff16600281111561173757611736613181565b5b14611777576040517f08c379a000000000000000000000000000000000000000000000000000000000815260040161176e90613b0c565b60405180910390fd5b5f6117828587611436565b90505f670de0b6b3a764000060045f8881526020019081526020015f2060010154836117ae91906135ac565b6117b8919061361a565b90505f60055f9054906101000a900473ffffffffffffffffffffffffffffffffffffffff1673ffffffffffffffffffffffffffffffffffffffff16634cdad50685600101546040518263ffffffff1660e01b815260040161181991906130dd565b602060405180830381865afa158015611834573d5f5f3e3d5ffd5b505050506040513d601f19601f82011682018060405250810190611858919061395f565b90508181101561189d576040517f08c379a000000000000000000000000000000000000000000000000000000000815260040161189490613b74565b60405180910390fd5b5f60025f3373ffffffffffffffffffffffffffffffffffffffff1673ffffffffffffffffffffffffffffffffffffffff1681526020019081526020015f205f8981526020019081526020015f2090505f73ffffffffffffffffffffffffffffffffffffffff16815f015f9054906101000a900473ffffffffffffffffffffffffffffffffffffffff1673ffffffffffffffffffffffffffffffffffffffff1603611a455733815f015f6101000a81548173ffffffffffffffffffffffffffffffffffffffff021916908373ffffffffffffffffffffffffffffffffffffffff16021790555087816003018190555089816002015f6101000a81548173ffffffffffffffffffffffffffffffffffffffff021916908373ffffffffffffffffffffffffffffffffffffffff1602179055505f816005015f6101000a81548160ff021916908360048111156119f3576119f2613181565b5b021790555060045f8981526020019081526020015f20600801546b033b2e3c9fd0803ce80000008a611a2591906135ac565b611a2f919061361a565b81600101819055505f8160040181905550611a96565b60045f8981526020019081526020015f20600801546b033b2e3c9fd0803ce80000008a611a7291906135ac565b611a7c919061361a565b816001015f828254611a8e919061364a565b925050819055505b6002856004015f6101000a81548160ff02191690836002811115611abd57611abc613181565b5b02179055503373ffffffffffffffffffffffffffffffffffffffff167ffde2590427a5802b0bad03bd7d0997bd073d01c701c2d9dd5e2691b62b49a20f898b8460010154604051611b1093929190613916565b60405180910390a250505050505050505050565b6001602052815f5260405f20602052805f5260405f205f9150915050805f015f9054906101000a900473ffffffffffffffffffffffffffffffffffffffff1690806001015490806002015f9054906101000a900473ffffffffffffffffffffffffffffffffffffffff1690806003015490806004015f9054906101000a900460ff16905085565b611bb3612b15565b600160025f8473ffffffffffffffffffffffffffffffffffffffff1673ffffffffffffffffffffffffffffffffffffffff1681526020019081526020015f205f8381526020019081526020015f206005015f6101000a81548160ff02191690836004811115611c2557611c24613181565b5b02179055508173ffffffffffffffffffffffffffffffffffffffff167fa6e3ed5928d608d281c1279db0690807d23467efa7964b47f4a3c69e2126ce3682604051611c70919061367d565b60405180910390a25050565b33825f73ffffffffffffffffffffffffffffffffffffffff1660015f8473ffffffffffffffffffffffffffffffffffffffff1673ffffffffffffffffffffffffffffffffffffffff1681526020019081526020015f205f8373ffffffffffffffffffffffffffffffffffffffff1673ffffffffffffffffffffffffffffffffffffffff1681526020019081526020015f205f015f9054906101000a900473ffffffffffffffffffffffffffffffffffffffff1673ffffffffffffffffffffffffffffffffffffffff1603611d85576040517f08c379a0000000000000000000000000000000000000000000000000000000008152600401611d7c90613a3c565b60405180910390fd5b5f60015f3373ffffffffffffffffffffffffffffffffffffffff1673ffffffffffffffffffffffffffffffffffffffff1681526020019081526020015f205f8673ffffffffffffffffffffffffffffffffffffffff1673ffffffffffffffffffffffffffffffffffffffff1681526020019081526020015f209050806001015460055f9054906101000a900473ffffffffffffffffffffffffffffffffffffffff1673ffffffffffffffffffffffffffffffffffffffff16630a28a477866040518263ffffffff1660e01b8152600401611e5f91906130dd565b602060405180830381865afa158015611e7a573d5f5f3e3d5ffd5b505050506040513d601f19601f82011682018060405250810190611e9e919061395f565b1115611edf576040517f08c379a0000000000000000000000000000000000000000000000000000000008152600401611ed690613bdc565b60405180910390fd5b5f8411611f21576040517f08c379a0000000000000000000000000000000000000000000000000000000008152600401611f1890613c44565b60405180910390fd5b600280811115611f3457611f33613181565b5b816004015f9054906101000a900460ff166002811115611f5757611f56613181565b5b03612133575f60025f3373ffffffffffffffffffffffffffffffffffffffff1673ffffffffffffffffffffffffffffffffffffffff1681526020019081526020015f205f836003015481526020019081526020015f2090505f60055f9054906101000a900473ffffffffffffffffffffffffffffffffffffffff1673ffffffffffffffffffffffffffffffffffffffff16634cdad50684600101546040518263ffffffff1660e01b815260040161200e91906130dd565b602060405180830381865afa158015612029573d5f5f3e3d5ffd5b505050506040513d601f19601f8201168201806040525081019061204d919061395f565b90505f82600401546b033b2e3c9fd0803ce800000060045f866003015481526020019081526020015f2060080154856001015461208a91906135ac565b612094919061361a565b61209e9190613579565b90505f6120af846003015483611436565b90505f88846120be9190613579565b90505f82670de0b6b3a7640000836120d691906135ac565b6120e0919061361a565b9050670de0b6b3a7640000811161212c576040517f08c379a000000000000000000000000000000000000000000000000000000000815260040161212390613cd2565b60405180910390fd5b5050505050505b5f60055f9054906101000a900473ffffffffffffffffffffffffffffffffffffffff1673ffffffffffffffffffffffffffffffffffffffff1663b460af948633306040518463ffffffff1660e01b815260040161219293929190613cf0565b6020604051808303815f875af11580156121ae573d5f5f3e3d5ffd5b505050506040513d601f19601f820116820180604052508101906121d2919061395f565b905080826001015f8282546121e79190613579565b925050819055505f8260010154036122a8575f825f015f6101000a81548173ffffffffffffffffffffffffffffffffffffffff021916908373ffffffffffffffffffffffffffffffffffffffff1602179055505f826002015f6101000a81548173ffffffffffffffffffffffffffffffffffffffff021916908373ffffffffffffffffffffffffffffffffffffffff1602179055505f826004015f6101000a81548160ff021916908360028111156122a2576122a1613181565b5b02179055505b3373ffffffffffffffffffffffffffffffffffffffff167fb8b0e31fbab9db4bb3b3adc13f94f66efdae109edc04accc80ad600761b3c9d0878785600101546040516122f693929190613d25565b60405180910390a2505050505050565b61230e612b15565b8060035f8473ffffffffffffffffffffffffffffffffffffffff1673ffffffffffffffffffffffffffffffffffffffff1681526020019081526020015f205f6101000a81548160ff0219169083151502179055508173ffffffffffffffffffffffffffffffffffffffff1663095ea7b360055f9054906101000a900473ffffffffffffffffffffffffffffffffffffffff167fffffffffffffffffffffffffffffffffffffffffffffffffffffffffffffffff6040518363ffffffff1660e01b81526004016123de929190613d5a565b6020604051808303815f875af11580156123fa573d5f5f3e3d5ffd5b505050506040513d601f19601f8201168201806040525081019061241e9190613d95565b505050565b60035f8373ffffffffffffffffffffffffffffffffffffffff1673ffffffffffffffffffffffffffffffffffffffff1681526020019081526020015f205f9054906101000a900460ff166124ac576040517f08c379a00000000000000000000000000000000000000000000000000000000081526004016124a390613e0a565b60405180910390fd5b5f81116124ee576040517f08c379a00000000000000000000000000000000000000000000000000000000081526004016124e590613c44565b60405180910390fd5b8173ffffffffffffffffffffffffffffffffffffffff166323b872dd3330846040518463ffffffff1660e01b815260040161252b93929190613e28565b6020604051808303815f875af1158015612547573d5f5f3e3d5ffd5b505050506040513d601f19601f8201168201806040525081019061256b9190613d95565b506126226040518060400160405280600e81526020017f746f7269746f2062616c616e63650000000000000000000000000000000000008152508373ffffffffffffffffffffffffffffffffffffffff166370a08231306040518263ffffffff1660e01b81526004016125de9190613286565b602060405180830381865afa1580156125f9573d5f5f3e3d5ffd5b505050506040513d601f19601f8201168201806040525081019061261d919061395f565b612c5d565b8173ffffffffffffffffffffffffffffffffffffffff1663095ea7b360055f9054906101000a900473ffffffffffffffffffffffffffffffffffffffff16836040518363ffffffff1660e01b815260040161267e929190613d5a565b6020604051808303815f875af115801561269a573d5f5f3e3d5ffd5b505050506040513d601f19601f820116820180604052508101906126be9190613d95565b505f60055f9054906101000a900473ffffffffffffffffffffffffffffffffffffffff1673ffffffffffffffffffffffffffffffffffffffff16636e553f6583306040518363ffffffff1660e01b815260040161271c929190613e5d565b6020604051808303815f875af1158015612738573d5f5f3e3d5ffd5b505050506040513d601f19601f8201168201806040525081019061275c919061395f565b905061279d6040518060400160405280600681526020017f736861726573000000000000000000000000000000000000000000000000000081525082612c5d565b6127dc6040518060400160405280600681526020017f616d6f756e74000000000000000000000000000000000000000000000000000081525083612c5d565b5f60015f3373ffffffffffffffffffffffffffffffffffffffff1673ffffffffffffffffffffffffffffffffffffffff1681526020019081526020015f205f8573ffffffffffffffffffffffffffffffffffffffff1673ffffffffffffffffffffffffffffffffffffffff1681526020019081526020015f2090505f73ffffffffffffffffffffffffffffffffffffffff16815f015f9054906101000a900473ffffffffffffffffffffffffffffffffffffffff1673ffffffffffffffffffffffffffffffffffffffff16036129685733815f015f6101000a81548173ffffffffffffffffffffffffffffffffffffffff021916908373ffffffffffffffffffffffffffffffffffffffff16021790555083816002015f6101000a81548173ffffffffffffffffffffffffffffffffffffffff021916908373ffffffffffffffffffffffffffffffffffffffff1602179055505f816004015f6101000a81548160ff0219169083600281111561295557612954613181565b5b0217905550818160010181905550612983565b81816001015f82825461297b919061364a565b925050819055505b3373ffffffffffffffffffffffffffffffffffffffff167fb8b0e31fbab9db4bb3b3adc13f94f66efdae109edc04accc80ad600761b3c9d0858584600101546040516129d193929190613d25565b60405180910390a250505050565b6129e7612b15565b5f73ffffffffffffffffffffffffffffffffffffffff168173ffffffffffffffffffffffffffffffffffffffff1603612a57575f6040517f1e4fbdf7000000000000000000000000000000000000000000000000000000008152600401612a4e9190613286565b60405180910390fd5b612a6081612b9c565b50565b6002602052815f5260405f20602052805f5260405f205f9150915050805f015f9054906101000a900473ffffffffffffffffffffffffffffffffffffffff1690806001015490806002015f9054906101000a900473ffffffffffffffffffffffffffffffffffffffff1690806003015490806004015490806005015f9054906101000a900460ff16905086565b60055f9054906101000a900473ffffffffffffffffffffffffffffffffffffffff1681565b612b1d612cf9565b73ffffffffffffffffffffffffffffffffffffffff16612b3b61140f565b73ffffffffffffffffffffffffffffffffffffffff1614612b9a57612b5e612cf9565b6040517f118cdaa7000000000000000000000000000000000000000000000000000000008152600401612b919190613286565b60405180910390fd5b565b5f5f5f9054906101000a900473ffffffffffffffffffffffffffffffffffffffff169050815f5f6101000a81548173ffffffffffffffffffffffffffffffffffffffff021916908373ffffffffffffffffffffffffffffffffffffffff1602179055508173ffffffffffffffffffffffffffffffffffffffff168173ffffffffffffffffffffffffffffffffffffffff167f8be0079c531659141344cd1fd0a4f28419497f9722a3daafe3b4186f6b6457e060405160405180910390a35050565b612cf58282604051602401612c73929190613ee4565b6040516020818303038152906040527fb60e72cc000000000000000000000000000000000000000000000000000000007bffffffffffffffffffffffffffffffffffffffffffffffffffffffff19166020820180517bffffffffffffffffffffffffffffffffffffffffffffffffffffffff8381831617835250505050612d00565b5050565b5f33905090565b612d1781612d0f612d1a612d39565b63ffffffff16565b50565b5f6a636f6e736f6c652e6c6f6790505f5f835160208501845afa505050565b612db2819050919050565b6040518060c001604052805f73ffffffffffffffffffffffffffffffffffffffff1681526020015f81526020015f73ffffffffffffffffffffffffffffffffffffffff1681526020015f81526020015f81526020015f6004811115612dac57612dab613181565b5b81525090565b612dba613f12565b565b5f5ffd5b5f819050919050565b612dd281612dc0565b8114612ddc575f5ffd5b50565b5f81359050612ded81612dc9565b92915050565b5f60208284031215612e0857612e07612dbc565b5b5f612e1584828501612ddf565b91505092915050565b5f73ffffffffffffffffffffffffffffffffffffffff82169050919050565b5f612e4782612e1e565b9050919050565b612e5781612e3d565b8114612e61575f5ffd5b50565b5f81359050612e7281612e4e565b92915050565b5f5f60408385031215612e8e57612e8d612dbc565b5b5f612e9b85828601612e64565b9250506020612eac85828601612ddf565b9150509250929050565b5f819050919050565b612ec881612eb6565b8114612ed2575f5ffd5b50565b5f81359050612ee381612ebf565b92915050565b5f5f5f5f5f5f5f5f610100898b031215612f0657612f05612dbc565b5b5f612f138b828c01612ddf565b9850506020612f248b828c01612e64565b9750506040612f358b828c01612ed5565b9650506060612f468b828c01612ed5565b9550506080612f578b828c01612ed5565b94505060a0612f688b828c01612ed5565b93505060c0612f798b828c01612ed5565b92505060e0612f8a8b828c01612ed5565b9150509295985092959890939650565b5f5f60408385031215612fb057612faf612dbc565b5b5f612fbd85828601612ddf565b9250506020612fce85828601612e64565b9150509250929050565b5f5f60408385031215612fee57612fed612dbc565b5b5f612ffb85828601612ddf565b925050602061300c85828601612ed5565b9150509250929050565b61301f81612dc0565b82525050565b61302e81612eb6565b82525050565b61303d81612e3d565b82525050565b5f610140820190506130575f83018d613016565b613064602083018c613025565b613071604083018b613025565b61307e606083018a613034565b61308b6080830189613025565b61309860a0830188613025565b6130a560c0830187613025565b6130b260e0830186613025565b6130c0610100830185613025565b6130ce610120830184613025565b9b9a5050505050505050505050565b5f6020820190506130f05f830184613025565b92915050565b5f6020828403121561310b5761310a612dbc565b5b5f61311884828501612e64565b91505092915050565b5f8115159050919050565b61313581613121565b82525050565b5f60208201905061314e5f83018461312c565b92915050565b61315d81612e3d565b82525050565b61316c81612eb6565b82525050565b61317b81612dc0565b82525050565b7f4e487b71000000000000000000000000000000000000000000000000000000005f52602160045260245ffd5b600581106131bf576131be613181565b5b50565b5f8190506131cf826131ae565b919050565b5f6131de826131c2565b9050919050565b6131ee816131d4565b82525050565b60c082015f8201516132085f850182613154565b50602082015161321b6020850182613163565b50604082015161322e6040850182613154565b5060608201516132416060850182613172565b5060808201516132546080850182613163565b5060a082015161326760a08501826131e5565b50505050565b5f60c0820190506132805f8301846131f4565b92915050565b5f6020820190506132995f830184613034565b92915050565b5f5f5f606084860312156132b6576132b5612dbc565b5b5f6132c386828701612e64565b93505060206132d486828701612ed5565b92505060406132e586828701612ddf565b9150509250925092565b5f5f6040838503121561330557613304612dbc565b5b5f61331285828601612e64565b925050602061332385828601612e64565b9150509250929050565b6003811061333e5761333d613181565b5b50565b5f81905061334e8261332d565b919050565b5f61335d82613341565b9050919050565b61336d81613353565b82525050565b5f60a0820190506133865f830188613034565b6133936020830187613025565b6133a06040830186613034565b6133ad6060830185613016565b6133ba6080830184613364565b9695505050505050565b5f5f604083850312156133da576133d9612dbc565b5b5f6133e785828601612e64565b92505060206133f885828601612ed5565b9150509250929050565b61340b81613121565b8114613415575f5ffd5b50565b5f8135905061342681613402565b92915050565b5f5f6040838503121561344257613441612dbc565b5b5f61344f85828601612e64565b925050602061346085828601613418565b9150509250929050565b613473816131d4565b82525050565b5f60c08201905061348c5f830189613034565b6134996020830188613025565b6134a66040830187613034565b6134b36060830186613016565b6134c06080830185613025565b6134cd60a083018461346a565b979650505050505050565b5f819050919050565b5f6134fb6134f66134f184612e1e565b6134d8565b612e1e565b9050919050565b5f61350c826134e1565b9050919050565b5f61351d82613502565b9050919050565b61352d81613513565b82525050565b5f6020820190506135465f830184613524565b92915050565b7f4e487b71000000000000000000000000000000000000000000000000000000005f52601160045260245ffd5b5f61358382612eb6565b915061358e83612eb6565b92508282039050818111156135a6576135a561354c565b5b92915050565b5f6135b682612eb6565b91506135c183612eb6565b92508282026135cf81612eb6565b915082820484148315176135e6576135e561354c565b5b5092915050565b7f4e487b71000000000000000000000000000000000000000000000000000000005f52601260045260245ffd5b5f61362482612eb6565b915061362f83612eb6565b92508261363f5761363e6135ed565b5b828204905092915050565b5f61365482612eb6565b915061365f83612eb6565b92508282019050808211156136775761367661354c565b5b92915050565b5f6020820190506136905f830184613016565b92915050565b5f82825260208201905092915050565b7f636f6c6c6174203e3d20313030250000000000000000000000000000000000005f82015250565b5f6136da600e83613696565b91506136e5826136a6565b602082019050919050565b5f6020820190508181035f830152613707816136ce565b9050919050565b7f6c6971203e3d20313030250000000000000000000000000000000000000000005f82015250565b5f613742600b83613696565b915061374d8261370e565b602082019050919050565b5f6020820190508181035f83015261376f81613736565b9050919050565b7f6c6971203c3d20636f6c6c6174000000000000000000000000000000000000005f82015250565b5f6137aa600d83613696565b91506137b582613776565b602082019050919050565b5f6020820190508181035f8301526137d78161379e565b9050919050565b7f6e6f20626f72726f7700000000000000000000000000000000000000000000005f82015250565b5f613812600983613696565b915061381d826137de565b602082019050919050565b5f6020820190508181035f83015261383f81613806565b9050919050565b7f6e6f742070726f636573736564000000000000000000000000000000000000005f82015250565b5f61387a600d83613696565b915061388582613846565b602082019050919050565b5f6020820190508181035f8301526138a78161386e565b9050919050565b7f65786365656473206f77656400000000000000000000000000000000000000005f82015250565b5f6138e2600c83613696565b91506138ed826138ae565b602082019050919050565b5f6020820190508181035f83015261390f816138d6565b9050919050565b5f6060820190506139295f830186613016565b6139366020830185613025565b6139436040830184613025565b949350505050565b5f8151905061395981612ebf565b92915050565b5f6020828403121561397457613973612dbc565b5b5f6139818482850161394b565b91505092915050565b7f6e6f74206c6971756964617461626c65000000000000000000000000000000005f82015250565b5f6139be601083613696565b91506139c98261398a565b602082019050919050565b5f6020820190508181035f8301526139eb816139b2565b9050919050565b7f6e6f20737570706c7900000000000000000000000000000000000000000000005f82015250565b5f613a26600983613696565b9150613a31826139f2565b602082019050919050565b5f6020820190508181035f830152613a5381613a1a565b9050919050565b7f43757272656e6379206e6f7420737570706f72746564000000000000000000005f82015250565b5f613a8e601683613696565b9150613a9982613a5a565b602082019050919050565b5f6020820190508181035f830152613abb81613a82565b9050919050565b7f737570706c79206e6f74206163746976650000000000000000000000000000005f82015250565b5f613af6601183613696565b9150613b0182613ac2565b602082019050919050565b5f6020820190508181035f830152613b2381613aea565b9050919050565b7f696e73756666696369656e7420636f6c6c61746572616c0000000000000000005f82015250565b5f613b5e601783613696565b9150613b6982613b2a565b602082019050919050565b5f6020820190508181035f830152613b8b81613b52565b9050919050565b7f496e73756666696369656e7420736861726573000000000000000000000000005f82015250565b5f613bc6601383613696565b9150613bd182613b92565b602082019050919050565b5f6020820190508181035f830152613bf381613bba565b9050919050565b7f416d6f756e74203e2030000000000000000000000000000000000000000000005f82015250565b5f613c2e600a83613696565b9150613c3982613bfa565b602082019050919050565b5f6020820190508181035f830152613c5b81613c22565b9050919050565b7f4865616c746820666163746f72206d757374206265203e2031206166746572205f8201527f7769746864726177616c00000000000000000000000000000000000000000000602082015250565b5f613cbc602a83613696565b9150613cc782613c62565b604082019050919050565b5f6020820190508181035f830152613ce981613cb0565b9050919050565b5f606082019050613d035f830186613025565b613d106020830185613034565b613d1d6040830184613034565b949350505050565b5f606082019050613d385f830186613034565b613d456020830185613025565b613d526040830184613025565b949350505050565b5f604082019050613d6d5f830185613034565b613d7a6020830184613025565b9392505050565b5f81519050613d8f81613402565b92915050565b5f60208284031215613daa57613da9612dbc565b5b5f613db784828501613d81565b91505092915050565b7f546f6b656e206e6f7420737570706f72746564000000000000000000000000005f82015250565b5f613df4601383613696565b9150613dff82613dc0565b602082019050919050565b5f6020820190508181035f830152613e2181613de8565b9050919050565b5f606082019050613e3b5f830186613034565b613e486020830185613034565b613e556040830184613025565b949350505050565b5f604082019050613e705f830185613025565b613e7d6020830184613034565b9392505050565b5f81519050919050565b8281835e5f83830152505050565b5f601f19601f8301169050919050565b5f613eb682613e84565b613ec08185613696565b9350613ed0818560208601613e8e565b613ed981613e9c565b840191505092915050565b5f6040820190508181035f830152613efc8185613eac565b9050613f0b6020830184613025565b9392505050565b7f4e487b71000000000000000000000000000000000000000000000000000000005f52605160045260245ffdfea2646970667358221220b7dae68e250066bfd71ae6ffb60e4a87550f39892e3ebc396550b310b401493664736f6c634300081e0033","linkReferences":{}},"methodIdentifiers":{"addSupportedCurrency(bytes32,address,uint256,uint256,uint256,uint256,uint256,uint256)":"07ea32eb","borrow(address,uint256,bytes32)":"aee582f9","borrows(address,bytes32)":"f59d4059","cancelBorrow(address,bytes32)":"050bdf06","convertCurrencyToUSD(bytes32,uint256)":"9fe9f4a0","convertUSDToCurrency(bytes32,uint256)":"510f065b","getBorrow(address,bytes32)":"697f6c08","getDynamicBorrowRate(bytes32)":"84e4da35","liquidate(address,bytes32)":"3af8c7a6","owner()":"8da5cb5b","processBorrow(address,bytes32)":"e399d95a","renounceOwnership()":"715018a6","repayLoan(bytes32,uint256)":"27c2f17c","setSupportedToken(address,bool)":"e7986466","supplies(address,address)":"c24f8530","supply(address,uint256)":"f2b9fdb8","supportedCurrencies(bytes32)":"3db1763f","supportedTokens(address)":"68c4ac26","transferOwnership(address)":"f2fde38b","updateBorrowIndex(bytes32)":"027315dd","updateCurrencyOracle(bytes32,address)":"1b70ab95","vault()":"fbfa77cf","withdrawSupply(address,uint256)":"e72b6026"},"id":37}